{
  "contractName": "Election",
  "abi": [
    {
      "constant": true,
      "inputs": [
        {
          "name": "",
          "type": "uint256"
        }
      ],
      "name": "candidates",
      "outputs": [
        {
          "name": "id",
          "type": "uint256"
        },
        {
          "name": "name",
          "type": "string"
        },
        {
          "name": "votes",
          "type": "uint256"
        }
      ],
      "payable": false,
      "stateMutability": "view",
      "type": "function"
    },
    {
      "constant": true,
      "inputs": [
        {
          "name": "",
          "type": "address"
        }
      ],
      "name": "voters",
      "outputs": [
        {
          "name": "",
          "type": "bool"
        }
      ],
      "payable": false,
      "stateMutability": "view",
      "type": "function"
    },
    {
      "constant": true,
      "inputs": [],
      "name": "candidateCount",
      "outputs": [
        {
          "name": "",
          "type": "uint256"
        }
      ],
      "payable": false,
      "stateMutability": "view",
      "type": "function"
    },
    {
      "inputs": [],
      "payable": false,
      "stateMutability": "nonpayable",
      "type": "constructor"
    },
    {
      "constant": false,
      "inputs": [
        {
          "name": "_id",
          "type": "uint256"
        }
      ],
      "name": "castVote",
      "outputs": [],
      "payable": false,
      "stateMutability": "nonpayable",
      "type": "function"
    }
  ],
  "bytecode": "0x608060405234801561001057600080fd5b5061005e6040805190810160405280600c81526020017f446f6e616c64205472756d7000000000000000000000000000000000000000008152506100b0640100000000026401000000009004565b6100ab6040805190810160405280600f81526020017f48696c6c61727920436c696e746f6e00000000000000000000000000000000008152506100b0640100000000026401000000009004565b6101d1565b60026000815480929190600101919050555060606040519081016040528060025481526020018281526020016000815250600080600254815260200190815260200160002060008201518160000155602082015181600101908051906020019061011b92919061012c565b506040820151816002015590505050565b828054600181600116156101000203166002900490600052602060002090601f016020900481019282601f1061016d57805160ff191683800117855561019b565b8280016001018555821561019b579182015b8281111561019a57825182559160200191906001019061017f565b5b5090506101a891906101ac565b5090565b6101ce91905b808211156101ca5760008160009055506001016101b2565b5090565b90565b6103d7806101e06000396000f300608060405260043610610062576000357c0100000000000000000000000000000000000000000000000000000000900463ffffffff1680633477ee2e146100675780633eb76b9c1461011b578063a3ec138d14610148578063a9a981a3146101a3575b600080fd5b34801561007357600080fd5b50610092600480360381019080803590602001909291905050506101ce565b6040518084815260200180602001838152602001828103825284818151815260200191508051906020019080838360005b838110156100de5780820151818401526020810190506100c3565b50505050905090810190601f16801561010b5780820380516001836020036101000a031916815260200191505b5094505050505060405180910390f35b34801561012757600080fd5b5061014660048036038101908080359060200190929190505050610290565b005b34801561015457600080fd5b50610189600480360381019080803573ffffffffffffffffffffffffffffffffffffffff169060200190929190505050610385565b604051808215151515815260200191505060405180910390f35b3480156101af57600080fd5b506101b86103a5565b6040518082815260200191505060405180910390f35b6000602052806000526040600020600091509050806000015490806001018054600181600116156101000203166002900480601f0160208091040260200160405190810160405280929190818152602001828054600181600116156101000203166002900480156102805780601f1061025557610100808354040283529160200191610280565b820191906000526020600020905b81548152906001019060200180831161026357829003601f168201915b5050505050908060020154905083565b600160003373ffffffffffffffffffffffffffffffffffffffff1673ffffffffffffffffffffffffffffffffffffffff16815260200190815260200160002060009054906101000a900460ff161515156102e957600080fd5b6000811180156102fb57506002548111155b151561030657600080fd5b60018060003373ffffffffffffffffffffffffffffffffffffffff1673ffffffffffffffffffffffffffffffffffffffff16815260200190815260200160002060006101000a81548160ff0219169083151502179055506000808281526020019081526020016000206002016000815480929190600101919050555050565b60016020528060005260406000206000915054906101000a900460ff1681565b600254815600a165627a7a7230582058c23678be645a7bfb598790973e6db11443a754b8520ea75f41075647b7532e0029",
  "source": "pragma solidity ^0.4.24;\n\ncontract Election {\n    // Define Candidate\n    struct Candidate {\n        uint id;\n        string name;\n        uint votes;\n    }\n    // Candidates storage\n    mapping(uint => Candidate) public candidates;\n    // Accounts that have voted\n    mapping(address => bool) public voters;\n    // Store number of candidates\n    // No need to initialize because default is 0\n    uint public candidateCount;\n\n    // Constructor\n    constructor() public {\n        // Add the candidates\n        addCandidate(\"Donald Trump\");\n        addCandidate(\"Hillary Clinton\");\n    }\n\n    // Add a Candidate\n    function addCandidate(string _name) private {\n        // Increment candidateCount\n        candidateCount++;\n        // Create and add Candidate\n        candidates[candidateCount] = Candidate(candidateCount, _name, 0);\n    }\n\n    function castVote(uint _id) public {\n        // Check if account already voted\n        require(!voters[msg.sender]);\n        // Check if _id is valid\n        require(_id > 0 && _id <= candidateCount);\n        // Record the account that votes\n        voters[msg.sender] = true;\n        // Increment the vote for the Candidate with _id\n        candidates[_id].votes++;\n    }\n}\n",
  "sourcePath": "C:\\Users\\Vasil\\Documents\\School\\Fontys\\T&H\\code\\election\\contracts\\Election.sol",
  "compiler": {
    "name": "solc",
    "version": "0.4.24+commit.e67f0147.Emscripten.clang"
  },
  "schemaVersion": "2.0.0",
  "updatedAt": "2018-12-02T21:02:54.730Z"
}